:020000020000FC
:0200000020C01E
:02002400D4C046
:0200340055C2B3
:1000400033C07894D0E418E315B914B920E02093B4
:10005000800021E02093810021E020936F0020E0C8
:100060002093B00027E02093B1002FEF2093B2003F
:1000700021E02093700020E024BD23E025BD2FEF78
:1000800026BD21E020936E0067E0219A299A2098EE
:10009000289A22982A9A3998419A3A9A429A3B9AEF
:1000A000439A00E000C0FFCF00002FEF26BD6A9505
:1000B0000AF466E00000C8E7F4E0EAEF98E0E60F33
:1000C00070E0F71FEC0F70E0F71F782F979F0C92EE
:1000D0007C91E70F1C927C91F71F732F979F0C92D6
:1000E0007C91F70F34902B9830FC2B9A2D982D9AF9
:1000F0002B9831FC2B9A2D982D9A2B9832FC2B9A09
:100100002D982D9A2B9833FC2B9A2D982D9A2B985D
:1001100034FC2B9A2D982D9AC85071F6F4E0EAEF32
:1001200098E0E60F70E0F71FEC0F70E0F71F782FF4
:10013000979F0C927C91E70F1C927C91F71F732F75
:10014000979F0C927C91F70F34902B9830FC2B9A50
:100150002D982D9A2B9831FC2B9A2D982D9A2B980F
:1001600032FC2B9A2D982D9A2B9833FC2B9A2D9894
:100170002D9A2B9834FC2B9A2D982D9A2B98D6FDDE
:100180002B9A2D982D9A2B98D5FD2B9A2D982D9A38
:100190002B98D4FD2B9A2D982D9A2B98D3FD2B9A22
:1001A0002D982D9A2B98D2FD2B9A2D982D9A2B981D
:1001B000D1FD2B9A2D982D9A2B98D0FD2B9A2D9806
:1001C0002D9AD795DD2309F4D0E41C9A18952FEFCA
:1001D0002093B200F3B1F0FB0EF02CC00000000041
:1001E00053985B9A52985A9A5198599A5098589A9B
:1001F000579A5F98569A5E98559A5D98549A5C986B
:10020000000000004B9B5CC04A9B76C0499B90C09D
:10021000489BAAC000C0F0FB0EF0000080ED30E06B
:10022000800F311F98E023B120FB0EF4329A0000BA
:100230001895189540E000EB12E080E030E0800F68
:10024000311F98E023B120FB0EF4329A000018957C
:1002500040E000E110E080E030E0800F311F98E0E6
:1002600023B120FB0EF4329A0000189540E000EF15
:1002700010E080E030E0800F311F98E023B120FBD8
:100280000EF4329A0000189540E000ED11E080E095
:1002900030E0800F311F98E023B120FB0EF4329A3A
:1002A0000000189541E000EC12E080E030E0800FA3
:1002B000311F98E023B120FB0EF4329A000018950C
:1002C00057985F9A56985E9A55985D9A54985C9A9A
:1002D000539A5B98529A5A98519A5998509A5898AA
:1002E0000000000000004F9B5BC04E9B66C04D9B12
:1002F00071C04C9BF4C08FCF57985F9A56985E9A06
:1003000055985D9A54985C9A539A5B98529A5A9869
:10031000519A5998509A58980000000000004F9B3D
:1003200066C04E9B71C04D9B7CC04C9BD7C073CFA9
:1003300057985F9A56985E9A55985D9A54985C9A29
:10034000539A5B98529A5A98519A5998509A589839
:100350000000000000004F9B71C04E9B7CC04D9B75
:1003600087C04C9BBAC057CF57985F9A56985E9AF1
:1003700055985D9A54985C9A539A5B98529A5A98F9
:10038000519A5998509A58980000000000004F9BCD
:100390007CC04E9B87C04D9B92C04C9B9DC03BCF69
:1003A000A8EC5FEA80E930E0800F311F98E023B1CC
:1003B00020FB0EF4329A00001895A8EA51E680E579
:1003C00030E0800F311F98E023B120FB0EF4329A09
:1003D00000001895A8E853E180E130E0800F311F5C
:1003E00098E023B120FB0EF4329A00001895A0E5A6
:1003F00053EC80EA30E0800F311F98E023B120FBFE
:100400000EF4329A00001895A0E355E780E630E03C
:10041000800F311F98E023B120FB0EF4329A0000C8
:100420001895A0E157E280E230E0800F311F98E09C
:1004300023B120FB0EF4329A00001895A8ED56ED7A
:1004400080EB30E0800F311F98E023B120FB0EF4E9
:10045000329A00001895A8EB58E880E730E0800F4A
:10046000311F98E023B120FB0EF4329A000018955A
:10047000A8E95AE380E330E0800F311F98E023B110
:1004800020FB0EF4329A00001895A0E65AEE80EC9C
:1004900030E0800F311F98E023B120FB0EF4329A38
:1004A00000001895A0E45CE980E830E0800F311F7F
:1004B00098E023B120FB0EF4329A00001895A0E2D8
:1004C0005EE480E430E0800F311F98E023B120FB30
:1004D0000EF4329A00001895D7CEC8CEB9CEE2CE2F
:1004E000F3B1F2FB46F0413031F4199A5093850094
:1004F000A09384001895299A189500000000000028
:1005000000000F09090F080808000F09090F0C0A5D
:1005100009000F09090909090F000F01010101096B
:1005200006000F08080E08080F001F040404040446
:10053000040000000000000000000E09090909097C
:100540000E000E04040404040E000000000000006D
:1005500000000E09090E09090E000F08080E080810
:100560000F000808080808080F000808080808080D
:100570000F00060909090F0909000000000000002A
:1005800000000000000000000000090F0F09090929
:100590000900060909090F0909001F0404040404DD
:1005A00004000909090F0909090000000000000002
:1005B000000000000000000000000F08080E0808FE
:1005C00008000909090909090F00090D0B090909A2
:1005D000090007080808080807001F0404040404A9
:1005E000040007080808080807000F090909090995
:1005F0000F00090D0B090909090000010204081088
:1006000010001F100000000000001F01000000008B
:1006100000000010080402010100000000000000BA
:1006200000000708080601010E000E04040404047B
:100630000E00090D0B090909090000000000000067
:1006400000000000000000000000000000000000AA
:10065000000000000000000000001010080402016B
:1006600000000000000000101F000000000000015A
:100670001F00010102040810000003040808101004
:100680001000180402020101010000000000000037
:100690000000000000000000000003040808101023
:1006A0001000180402020101010000000000000017
:1006B000000000000000000000000000000000003A
:1006C00000000000000000000000101010080804E6
:1006D00003000101020202041800000000000000F3
:1006E00000000000000000000000101010080804C6
:1006F000030001010202020418001F0100000000B3
:10070000000000100804020101000708080808089A
:1007100007000F09090909090F0007080806010168
:100720000E0000000000000000000001020408109C
:1007300010001F100000000000000000000000007A
:10074000000000000000000000001010080402017A
:1007500000000000000000101F0000000000000169
:100760001F0001010204081000000000000000004A
:100770000000000000000000000018040202010157
:100780000100000000000000000000000000000068
:1007900000000304080810101000180402020101F0
:1007A0000100000000000000000000000000000048
:1007B00000000304080810101000000000000000F2
:1007C00000001010100808040300010102020204D6
:1007D0001800000000000000000000000000000001
:1007E00000001010100808040300010102020204B6
:1007F00018000000000000000000001F00000000C2
:100800001F0000001C0301001F001010101010102A
:100810001F000000000000001F000000000000009A
:1008200000001F04040404040400060909090F0958
:100830000900090D0B090909090015000000000055
:1008400000000A0000000000000015181C13101022
:1008500010000A0000101F0000000000000000004F
:100860000000000000000000000000000000000088
:100870000000000000000000000000000000001F59
:100880001F00000001031C001F00101010101010AA
:100890001F000000000000001F00070808080808EB
:1008A00007001F04040404040400060909090F09D1
:1008B0000900090D0B0909090900150000000000D5
:1008C00000000A00000000000000151010131C18A2
:1008D00010000A1F100000000000000000000000CF
:1008E0000000000000000000000000000000000008
:1008F000000000000000000000001010181818147C
:100900001F000000000000001F00000000000000A9
:100910001F000000000000001F0009090907020471
:10092000080000000E000E0000000006090F080875
:100930000700110A040A1100000011101010101015
:10094000100000100C03000000000000001F000059
:100950000000000000001F00000000000000000078
:100960000000000000000000000000000000000087
:10097000000000000000000000000C080C080C083B
:100980000C000000000000000F000000000000004C
:100990001F000000000000001F00090909070204F1
:1009A000080000000E000E0000001010101F1919A2
:1009B00019000000110A040A110008090B1F0C0C91
:1009C0000C001010001F000000000000001F0000BD
:1009D00000000000001F00000000000000000000F8
:1009E0000000000000000000000000000000000007
:1009F000000000000000000000001613111010108D
:100A00001F00000010180C061F000000000000006E
:100A10001F000000000000001F0009090907020470
:100A2000080000000E000E0000000909090609096F
:100A30000900000000000000000015101010101048
:100A400010000B0000000000000015180C06030148
:100A500000000A0000000010180000000000000064
:100A60000000000000000000000000000000000086
:100A70000000000000000000000010101314181007
:100A80001F0000001F0000001F00001F00000000EA
:100A90001F001F00000000001F00090909070204D1
:100AA000080000000E000E000000090909060909EF
:100AB00009001C041C101C00000015101814131051
:100AC00010000A0000001F00000015000000001FB9
:100AD00000000A00000000001F00000000000000ED
:100AE0000000000000000000000000000000000006
:100AF00000000000000000000000000000000000F6
:100B00001F000000000000001F0010101013141838
:100B10001F0000001F1000001F0009090907020440
:100B2000080000000E000E0000000909090609096E
:100B300009001C041C041C000000150000001F001C
:100B400000000A01031C0000000015101010101016
:100B500010100A000000000000000000000000006B
:100B60000000000000000000000000000000000085
:100B7000000000000000000000000C080C080C0839
:100B80000D00000000000F181000000000001F0002
:100B900000000000001F10000000090909070204FE
:100BA000080000000E000E000000111214181818A2
:100BB00018001F00110A040A11000B0E0C1F080870
:100BC00008000000001F000000000000001F0000DF
:100BD00000000000001F00000000000000000000F6
:100BE0000000000000000000000000000000000005
:100BF00000000000000000000000000000000000F5
:100C0000000007080808080807000909090F090972
:100C100009000F09090909090F000F090909090944
:100C20000F000708080601010E000F08080E08084B
:100C30000F0000000000000000000F08080E080868
:100C400008000909090909090F00090D0B0909091B
:100C5000090007080808080807001F040404040422
:100C6000040007080808080807000F09090909090E
:100C70000F00090D0B09090909000F09090F0808E0
:100C800008000F08080E08080F000F09090F0C0ACA
:100C900009000E04040404040E000F0909090909DF
:100CA0000F000E09090909090E000E0404040404CA
:100CB0000E000708080808080700000000000000F0
:100CC00000001F04040404040400060909090F09B4
:100CD00009000E09090E09090E000808080808088D
:100CE0000F000F08080E08080F00000000000000A9
:100CF000000002060A02020202000909090F09099E
:100D0000090009090907020408000E09090909096F
:100D10000E000F09090F0C0A09000F09090909093A
:100D20000F000F0808080B090F000F08080E08082D
:100D30000F00090D0B09090909000C1212121E12ED
:100D40001300090D0B090909090009090909090915
:100D50000F00090F0F090909090000000400040031
:100D600000000F09090909090F000F0909090909FC
:100D70000F0002060A02020202000000000000004A
:100D800000000909090F090909000F08080E0808E1
:100D90000F000808080808080F000E0404040404E3
:100DA0000E000909090909090F00090F0F090909AE
:100DB000090000000000000000000C1212121E12B8
:100DC0001300090D0B090909090009090909090995
:100DD0000F00090F0F0909090900000004000400B1
:100DE00000000F09090909090F000F09090909097C
:100DF0000F000F01010F08080F0008080808080875
:100E00000F000E04040404040E001F040404040470
:100E100004000909090F090909000E040404040467
:100E20000E000909090909090F00090F0F0909092D
:100E3000090000000000000000000C1212121E1237
:100E40001300090D0B090909090009090909090914
:100E50000F00090F0F090909090000000400040030
:100E600000000F09090909090F000F0909090909FB
:100E70000F000F01010701010F000000000000003A
:100E800000000E09090E09090E000F0909090909D8
:100E90000F000F09090F0C0A09000F0909090909B8
:100EA0000F00090D0B0909090900000000000000EE
:100EB000000000000000000000000C1212121E12C0
:100EC0001300090D0B090909090009090909090994
:100ED0000F00090F0F0909090900000004000400B0
:100EE00000000F09090909090F000F09090909097B
:100EF0000F000F08080F01010F00000000000000A4
:100F000000000708080808080700060909090F0972
:100F100009000F09090F0C0A09000E09090E090939
:100F20000E000F09090909090F00090D0B0909092C
:100F3000090000000000000000000C1212121E1236
:100F40001300090D0B090909090009090909090913
:100F50000F00090F0F09090909000000040004002F
:100F600000000F09090909090F000F0909090909FA
:100F70000F000F08080F09090F00090D0B090909D7
:100F800009000E04040404040E001F0404040404F5
:100F900004000F09090F0C0A09000F0909090909C2
:100FA0000F000F0808080B090F000F08080E0808AB
:100FB0000F00090D0B09090909000C1212121E126B
:100FC0001300090D0B090909090009090909090993
:100FD0000F00090F0F0909090900000004000400AF
:100FE00000000F09090909090F000F09090909097A
:100FF0000F000F010102040404000F09090F080883
:1010000008000F09090909090F001F04040404045A
:101010000400060909090F0909000708080601016B
:101020000E000E04040404040E000909090909094C
:101030000F00090F0F09090909000C1212121E12E4
:101040001300090D0B090909090009090909090912
:101050000F00090F0F09090909000000040004002E
:1010600000000F09090909090F0002060A0202021D
:1010700002000F09090F01010F000000000000002D
:1010800000000F09090909090F00090909060909E2
:10109000090009090907020408000F0808080B09DC
:1010A0000F000F08080E08080F00090D0B090909A9
:1010B000090000000000000000000C1212121E12B5
:1010C0001300090D0B090909090009090909090992
:1010D0000F00090F0F0909090900000004000400AE
:1010E00000000F09090909090F000F090909090979
:1010F0000F000F09090F09090F000F08080E080853
:1011000008000808080808080F0009090909090962
:101110000F000F09090909090F000F09090F0C0A2F
:1011200009000E04040404040E00090D0B0909094A
:1011300009000F08080E08080F000C1212121E12E8
:101140001300090D0B090909090009090909090911
:101150000F00090F0F09090909000000040004002D
:1011600000000F09090909090F000F0909090909F8
:101170000F000F09090F01010F000000000000001F
:1011800000000708080601010E000F0909090909F6
:101190000F000E09090909090E000E0404040404D5
:1011A0000E000909090909090F00090F0F090909AA
:1011B000090000000000000000000C1212121E12B4
:1011C0001300090D0B090909090009090909090991
:1011D0000F00090F0F0909090900000004000400AD
:1011E00000000F09090909090F0002060A0202029C
:1011F000020002060A0202020200090F0F09090991
:101200000900060909090F0909000F0808080B0958
:101210000F00090D0B09090909000708080601015B
:101220000E000E04040404040E000909090909094A
:101230000F00090F0F09090909000C1212121E12E2
:101240001300090D0B090909090009090909090910
:101250000F00090F0F09090909000000040004002C
:1012600000000F09090909090F0002060A0202021B
:1012700002000F01010F08080F000000000000002D
:1012800000000708080601010E00090909090909FB
:101290000F000808080808080F000F08080E0808C3
:1012A00008000909090909090F000F09090F0C0AAB
:1012B000090000000000000000000C1212121E12B3
:1012C0001300090D0B090909090009090909090990
:1012D0000F00090F0F0909090900000004000400AC
:1012E00000000F09090909090F0002060A0202029B
:1012F00002000F08080F09090F000909090F090961
:1013000009000909090F09090900000C121E101033
:101310001C000808080808080F0000100010101032
:1013200010000E09090E09090E0007080808080830
:101330000700090D0B0909090900090A0C080C0A24
:1013400009000F09090909090F000F08080E08080C
:101350000800090D0B090909090000000C020E1212
:101360000E00090F0F0909090900000A16160A02E2
:101370000E000708080601010E000F09090F0808F2
:1013800008000F08080E08080F000F09090F0C0AC3
:1013900009000E04040404040E000F0909090909D8
:1013A0000F000E09090909090E000E0404040404C3
:1013B0000E000708080808080700000000000000E9
:1013C00000001F04040404040400060909090F09AD
:1013D00009000E09090E09090E0008080808080886
:1013E0000F000F08080E08080F00000000000000A2
:1013F00000000F01010F08080F00000000000000AE
:1014000000000708080601010E0009090909090979
:101410000F000808080808080F000F08080E080841
:1014200008000909090909090F000F09090F0C0A29
:10143000090000000000000000000C1212121E1231
:101440001300090D0B09090909000909090909090E
:101450000F00090F0F09090909000000040004002A
:1014600000000F09090909090F0002060A02020219
:1014700002000F08080F09090F000909090F0909DF
:10148000090009090907020408000E0909090909E8
:101490000E000F09090F0C0A09000F0909090909B3
:1014A0000F000F0808080B090F000F08080E0808A6
:1014B0000F00090D0B09090909000C1212121E1266
:1014C0001300090D0B09090909000909090909098E
:1014D0000F00090F0F0909090900000004000400AA
:1014E00000000F09090909090F000F090909090975
:1014F0000F0002060A0202020200000000000000C3
:1015000000000909090F090909000F08080E080859
:101510000F000808080808080F000E04040404045B
:101520000E000909090909090F00090F0F09090926
:10153000090000000000000000000C1212121E1230
:101540001300090D0B09090909000909090909090D
:101550000F00090F0F090909090000000400040029
:1015600000000F09090909090F000F0909090909F4
:101570000F000F01010F08080F00080808080808ED
:101580000F000E04040404040E001F0404040404E9
:1015900004000909090F090909000E0404040404E0
:1015A0000E000909090909090F00090F0F090909A6
:1015B000090000000000000000000C1212121E12B0
:1015C0001300090D0B09090909000909090909098D
:1015D0000F00090F0F0909090900000004000400A9
:1015E00000000F09090909090F000F090909090974
:1015F0000F000F01010701010F00000000000000B3
:1016000000000E09090E09090E000F090909090950
:101610000F000F09090F0C0A09000F090909090930
:101620000F00090D0B090909090000000000000066
:10163000000000000000000000000C1212121E1238
:101640001300090D0B09090909000909090909090C
:101650000F00090F0F090909090000000400040028
:1016600000000F09090909090F000F0909090909F3
:101670000F000F08080F01010F000000000000001C
:1016800000000708080808080700060909090F09EB
:1016900009000F09090F0C0A09000E09090E0909B2
:1016A0000E000F09090909090F00090D0B090909A5
:1016B000090000000000000000000C1212121E12AF
:1016C0001300090D0B09090909000909090909098C
:1016D0000F00090F0F0909090900000004000400A8
:1016E00000000F09090909090F000F090909090973
:1016F0000F000F08080F09090F00090D0B09090950
:1017000009000E04040404040E001F04040404046D
:1017100004000F09090F0C0A09000F09090909093A
:101720000F000F0808080B090F000F08080E080823
:101730000F00090D0B09090909000C1212121E12E3
:101740001300090D0B09090909000909090909090B
:101750000F00090F0F090909090000000400040027
:1017600000000F09090909090F000F0909090909F2
:101770000F000F010102040404000F09090F0808FB
:1017800008000F09090909090F001F0404040404D3
:101790000400060909090F090900070808060101E4
:1017A0000E000E04040404040E00090909090909C5
:1017B0000F00090F0F09090909000C1212121E125D
:1017C0001300090D0B09090909000909090909098B
:1017D0000F00090F0F0909090900000004000400A7
:1017E00000000F09090909090F0002060A02020296
:1017F00002000F09090F01010F00000000000000A6
:1018000000000F09090909090F000909090609095A
:10181000090009090907020408000F0808080B0954
:101820000F000F08080E08080F00090D0B09090921
:10183000090000000000000000000C1212121E122D
:101840001300090D0B09090909000909090909090A
:101850000F00090F0F090909090000000400040026
:1018600000000F09090909090F000F0909090909F1
:101870000F000F09090F09090F000F08080E0808CB
:1018800008000808080808080F00090909090909DB
:101890000F000F09090909090F000F09090F0C0AA8
:1018A00009000E04040404040E00090D0B090909C3
:1018B00009000F08080E08080F000C1212121E1261
:1018C0001300090D0B09090909000909090909098A
:1018D0000F00090F0F0909090900000004000400A6
:1018E00000000F09090909090F000F090909090971
:1018F0000F000F09090F01010F0000000000000098
:1019000000000708080601010E000F09090909096E
:101910000F000E09090909090E000E04040404044D
:101920000E000909090909090F00090F0F09090922
:10193000090000000000000000000C1212121E122C
:101940001300090D0B090909090009090909090909
:101950000F00090F0F090909090000000400040025
:1019600000000F09090909090F0002060A02020214
:10197000020002060A0202020200090F0F09090909
:101980000900060909090F0909000F0808080B09D1
:101990000F00090D0B0909090900070808060101D4
:1019A0000E000E04040404040E00090909090909C3
:1019B0000F00090F0F09090909000C1212121E125B
:1019C0001300090D0B090909090009090909090989
:1019D0000F00090F0F0909090900000004000400A5
:1019E00000000F09090909090F0002060A02020294
:1019F00002000F01010F08080F0007080808080877
:101A0000070000000C020E120E000F08080E080856
:101A10000800000C121E10100E00060909090F091B
:101A20000900000C12120E020E000E04040404043D
:101A30000E00110A0404040404000F010106080842
:101A40000F000000040A0A0A0A00121A17121313E0
:101A5000130010101012151515000C1212131F137D
:101A600013000F09090F080808000F08080E0808DE
:101A70000F000F09090F0C0A090000000000000008
:101A800000000F09090F080808000F09090F0C0AC8
:101A900009000F09090909090F000F0101010109D6
:101AA00006000F08080E08080F001F0404040404B1
:101AB000040000000000000000000E0909090909E7
:101AC0000E000E04040404040E00000000000000D8
:101AD00000000E09090E09090E000F08080E08087B
:101AE0000F000808080808080F0008080808080878
:101AF0000F00060909090F09090000000000000095
:101B00000000090F0F090909090009090909090954
:101B10000F000708080601010E000E040404040467
:101B20000E00070808080808070000000000000071
:101B300000000000000000000000000000000000A5
:101B400000000000000000000000090D0B09090959
:101B500009000F09090909090F001F0404040404FE
:101B600004000F08080E08080F0000000000000025
:101B70000000000000000000000000000000000065
:101B80000000000000000000000000000000000055
:101B90000000000000000000000000000000000045
:101BA0000000000000000000000000000000000035
:101BB0000000000000000000000000000000000025
:101BC0000000000000000000000000000000000015
:101BD00000000E09090909090E000F090909090980
:101BE0000F000000000000000000000000000000E6
:101BF00000000000000000000000000000000000E5
:101C000000000000000000000000000000000000D4
:101C100000000000000000000000000000000000C4
:101C200000000000000000000000000000000000B4
:101C300000000000000000000000000000000000A4
:101C40000000000000000000000000000000000094
:101C500000000E09090909090E000F0909090909FF
:101C60000F00000A1F0A1F0A000000000000000009
:101C70000000000000000000000000000000000064
:101C80000000000000000000000000000000000054
:101C90000000000000000000000000000000000044
:101CA0000000000000000000000000000000000034
:101CB0000000000000000000000000000000000024
:101CC0000000000000000000000000000000000014
:101CD00000000F09090F0C0A09000F08080E080878
:101CE0000F000000000000000000000000000000E5
:101CF00000000000000000000000000000000000E4
:101D000000000000000000000000000000000000D3
:101D100000000000000000000000000000000000C3
:101D200000000000000000000000000000000000B3
:101D300000000000000000000000000000000000A3
:101D40000000000000000000000000000000000093
:101D500000000F09090F0C0A09000F08080E0808F7
:101D60000F00000A1F0A1F0A000000000000000008
:101D70000000000000000000000000000000000063
:101D80000000000000000000000000000000000053
:101D90000000000000000000000000000000000043
:101DA0000000000000000000000000000000000033
:101DB0000000000000000000000000000000000023
:101DC0000000000000000000000000000000000013
:101DD0000000090F0F09090909000E040404040496
:101DE0000E000000000000000000000000000000E5
:101DF00000000000000000000000000000000000E3
:101E000000000000000000000000000000000000D2
:101E100000000000000000000000000000000000C2
:101E200000000000000000000000000000000000B2
:101E300000000000000000000000000000000000A2
:101E40000000000000000000000000000000000092
:101E500000000F08080E08080800060909090F0904
:101E60000900000000000000000000000000000069
:101E70000000000000000000000000000000000062
:101E80000000000000000000000000000000000052
:101E90000000000000000000000000000000000042
:101EA0000000000000000000000000000000000032
:101EB0000000000000000000000000000000000022
:101EC0000000000000000000000000000000000012
:101ED00000000F08080E08080800060909090F0984
:101EE0000900000A1F0A1F0A00000000000000008D
:101EF00000000000000000000000000000000000E2
:101F000000000000000000000000000000000000D1
:101F100000000000000000000000000000000000C1
:101F200000000000000000000000000000000000B1
:101F300000000000000000000000000000000000A1
:101F40000000000000000000000000000000000091
:101F500000000708080601010E000F090909090918
:101F60000F000808080808080F0000000000000023
:101F70000000000000000000000000000000000061
:101F80000000000000000000000000000000000051
:101F90000000000000000000000000000000000041
:101FA0000000000000000000000000000000000031
:101FB0000000000000000000000000000000000021
:101FC0000000000000000000000000000000000011
:101FD00000000708080601010E000F090909090998
:101FE0000F000808080808080F00000A1F0A1F0A47
:101FF00000000000000000000000000000000000E1
:1020000000000000000000000000000000000000D0
:1020100000000000000000000000000000000000C0
:1020200000000000000000000000000000000000B0
:1020300000000000000000000000000000000000A0
:102040000000000000000000000000000000000090
:1020500000000808080808080F00060909090F0908
:102060000900000000000000000000000000000067
:102070000000000000000000000000000000000060
:102080000000000000000000000000000000000050
:102090000000000000000000000000000000000040
:1020A0000000000000000000000000000000000030
:1020B0000000000000000000000000000000000020
:1020C0000000000000000000000000000000000010
:1020D00000000808080808080F00060909090F0988
:1020E0000900000A1F0A1F0A00000000000000008B
:1020F00000000000000000000000000000000000E0
:10210000000007080808080807000909090F09095D
:1021100009000F09090909090F000F09090909092F
:102120000F000708080601010E000F08080E080836
:102130000F00000000000000000000000000000090
:1021400000001F040404040404000F09090909091C
:102150000F000F09090F080808000E040404040406
:102160000E0007080808080807000E0A0206040007
:10217000040000000000000000000000000000005B
:10218000000007080808080807000909090F0909DD
:1021900009000F09090909090F000F0909090909AF
:1021A0000F000708080601010E000F08080E0808B6
:1021B0000F00000000000000000000000000000010
:1021C0000000090F0F09090909000909090909098E
:1021D0000F000708080601010E000E0404040404A1
:1021E0000E000708080808080700000000000000AB
:0A21F00000000000000000000000E5
:00000001FF
